:020000040000fa
:080000000002040000000000f2
:020000040000fa
:040008008a07000063
:020000040000fa
:04000c008a0700005f
:020000040000fa
:040010008a0700005b
:020000040000fa
:040014008a07000057
:020000040000fa
:040018008a07000053
:020000040000fa
:04001c008a0700004f
:020000040000fa
:040020008a0700004b
:020000040000fa
:040024008a07000047
:020000040000fa
:040028008a07000043
:020000040000fa
:04002c008a0700003f
:020000040000fa
:040030008a0700003b
:020000040000fa
:040034008a07000037
:020000040000fa
:040038008a07000033
:020000040000fa
:04003c008a0700002f
:020000040000fa
:040040008a0700002b
:020000040000fa
:040044008a07000027
:020000040000fa
:040048008a07000023
:020000040000fa
:04004c008a0700001f
:020000040000fa
:040050008a0700001b
:020000040000fa
:040054008003000025
:020000040000fa
:04005800b4030000ed
:020000040000fa
:04005c008a0700000f
:020000040000fa
:040060008a0700000b
:020000040000fa
:040064008a07000007
:020000040000fa
:040068008a07000003
:020000040000fa
:04006c008a070000ff
:020000040000fa
:040070008a070000fb
:020000040000fa
:040074008a070000f7
:020000040000fa
:040078008a070000f3
:020000040000fa
:04007c008a070000ef
:020000040000fa
:040080008a070000eb
:020000040000fa
:040084008a070000e7
:020000040000fa
:040088008a070000e3
:020000040000fa
:04008c008a070000df
:020000040000fa
:040090008a070000db
:020000040000fa
:040094008a070000d7
:020000040000fa
:040098008a070000d3
:020000040000fa
:04009c008a070000cf
:020000040000fa
:0400a0008a070000cb
:020000040000fa
:0400a4008a070000c7
:020000040000fa
:0400a8008a070000c3
:020000040000fa
:0400ac008a070000bf
:020000040000fa
:0400b0008a070000bb
:020000040000fa
:0400b4008a070000b7
:020000040000fa
:0400b8008a070000b3
:020000040000fa
:0400bc008a070000af
:020000040000fa
:0400c0008a070000ab
:020000040000fa
:0400c4008a070000a7
:020000040000fa
:0400c8008a070000a3
:020000040000fa
:0400cc008a0700009f
:020000040000fa
:0400d0008a0700009b
:020000040000fa
:0400d4008a07000097
:020000040000fa
:0400d8008a07000093
:020000040000fa
:0400dc008a0700008f
:020000040000fa
:0400e0008a0700008b
:020000040000fa
:0400e4008a07000087
:020000040000fa
:0400e8008a07000083
:020000040000fa
:0400ec008a0700007f
:020000040000fa
:0400f0008a0700007b
:020000040000fa
:0400f4008a07000077
:020000040000fa
:0400f8008a07000073
:020000040000fa
:0400fc008a0700006f
:020000040000fa
:040100008a0700006a
:020000040000fa
:040104008a07000066
:020000040000fa
:040108008a07000062
:020000040000fa
:04010c008a0700005e
:020000040000fa
:040110008a0700005a
:020000040000fa
:040114008a07000056
:020000040000fa
:040118008a07000052
:020000040000fa
:04011c008a0700004e
:020000040000fa
:040120008a0700004a
:020000040000fa
:040124008a07000046
:020000040000fa
:040128008a07000042
:020000040000fa
:04012c008a0700003e
:020000040000fa
:040130008a0700003a
:020000040000fa
:040134008a07000036
:020000040000fa
:040138008a07000032
:020000040000fa
:04013c008a0700002e
:020000040000fa
:040140008a0700002a
:020000040000fa
:040144008a07000026
:020000040000fa
:040148008a07000022
:020000040000fa
:04014c008a0700001e
:020000040000fa
:040150008a0700001a
:020000040000fa
:040154008a07000016
:020000040000fa
:040158008a07000012
:020000040000fa
:04015c008a0700000e
:020000040000fa
:040160008a0700000a
:020000040000fa
:040164008a07000006
:020000040000fa
:040168008a07000002
:020000040000fa
:04016c008a070000fe
:020000040000fa
:040170008a070000fa
:020000040000fa
:040174008a070000f6
:020000040000fa
:040178008a070000f2
:020000040000fa
:04017c008a070000ee
:020000040000fa
:04018000f403000084
:020000040000fa
:040208008a07000061
:020000040000fa
:04020c008a0700005d
:020000040000fa
:040210008a07000059
:020000040000fa
:040214008a07000055
:020000040000fa
:040218008a07000051
:020000040000fa
:04021c008a0700004d
:020000040000fa
:040220008a07000049
:020000040000fa
:040224008a07000045
:020000040000fa
:040228008a07000041
:020000040000fa
:04022c008a0700003d
:020000040000fa
:040230008a07000039
:020000040000fa
:040234008a07000035
:020000040000fa
:040238008a07000031
:020000040000fa
:04023c008a0700002d
:020000040000fa
:040240008a07000029
:020000040000fa
:040244008a07000025
:020000040000fa
:040248008a07000021
:020000040000fa
:04024c008a0700001d
:020000040000fa
:040250008a07000019
:020000040000fa
:040254008003000023
:020000040000fa
:04025800b4030000eb
:020000040000fa
:04025c008a0700000d
:020000040000fa
:040260008a07000009
:020000040000fa
:040264008a07000005
:020000040000fa
:040268008a07000001
:020000040000fa
:04026c008a070000fd
:020000040000fa
:040270008a070000f9
:020000040000fa
:040274008a070000f5
:020000040000fa
:040278008a070000f1
:020000040000fa
:04027c008a070000ed
:020000040000fa
:040280008a070000e9
:020000040000fa
:040284008a070000e5
:020000040000fa
:040288008a070000e1
:020000040000fa
:04028c008a070000dd
:020000040000fa
:040290008a070000d9
:020000040000fa
:040294008a070000d5
:020000040000fa
:040298008a070000d1
:020000040000fa
:04029c008a070000cd
:020000040000fa
:0402a0008a070000c9
:020000040000fa
:0402a4008a070000c5
:020000040000fa
:0402a8008a070000c1
:020000040000fa
:0402ac008a070000bd
:020000040000fa
:0402b0008a070000b9
:020000040000fa
:0402b4008a070000b5
:020000040000fa
:0402b8008a070000b1
:020000040000fa
:0402bc008a070000ad
:020000040000fa
:0402c0008a070000a9
:020000040000fa
:0402c4008a070000a5
:020000040000fa
:0402c8008a070000a1
:020000040000fa
:0402cc008a0700009d
:020000040000fa
:0402d0008a07000099
:020000040000fa
:0402d4008a07000095
:020000040000fa
:0402d8008a07000091
:020000040000fa
:0402dc008a0700008d
:020000040000fa
:0402e0008a07000089
:020000040000fa
:0402e4008a07000085
:020000040000fa
:0402e8008a07000081
:020000040000fa
:0402ec008a0700007d
:020000040000fa
:0402f0008a07000079
:020000040000fa
:0402f4008a07000075
:020000040000fa
:0402f8008a07000071
:020000040000fa
:0402fc008a0700006d
:020000040000fa
:040300008a07000068
:020000040000fa
:040304008a07000064
:020000040000fa
:040308008a07000060
:020000040000fa
:04030c008a0700005c
:020000040000fa
:040310008a07000058
:020000040000fa
:040314008a07000054
:020000040000fa
:040318008a07000050
:020000040000fa
:04031c008a0700004c
:020000040000fa
:040320008a07000048
:020000040000fa
:040324008a07000044
:020000040000fa
:040328008a07000040
:020000040000fa
:04032c008a0700003c
:020000040000fa
:040330008a07000038
:020000040000fa
:040334008a07000034
:020000040000fa
:040338008a07000030
:020000040000fa
:04033c008a0700002c
:020000040000fa
:040340008a07000028
:020000040000fa
:040344008a07000024
:020000040000fa
:040348008a07000020
:020000040000fa
:04034c008a0700001c
:020000040000fa
:040350008a07000018
:020000040000fa
:040354008a07000014
:020000040000fa
:040358008a07000010
:020000040000fa
:04035c008a0700000c
:020000040000fa
:040360008a07000008
:020000040000fa
:040364008a07000004
:020000040000fa
:040368008a07000000
:020000040000fa
:04036c008a070000fc
:020000040000fa
:040370008a070000f8
:020000040000fa
:040374008a070000f4
:020000040000fa
:040378008a070000f0
:020000040000fa
:04037c008a070000ec
:020000040000fa
:04038000f403000082
:020000040000fa
:10040000cf9621000e7f22000e0188000000000020
:10041000000020000000e000020032000001200087
:100420002002880014000700dd0207000000e00041
:1004300003003a00e09d2700010020000200370081
:100440000000200001002000810f70000100320038
:1004500014000700000020000000e000020032004d
:1004600000000200000000005266020000000000d0
:100470000040da000000fe004440a9006044200073
:100480000000e0000300320000002000a00188000e
:100490004440a800000006008a1f78008b1f7800e7
:1004a0000000060091018800800478000000eb0045
:1004b0001a003700e284440032a0b4009905ba0063
:1004c000e284440032a0b4009906ba00e2844400f9
:1004d00032a0b4000006eb00476fde00fd07b2005b
:1004e000636ce10003003a00ebff07000000eb0043
:1004f0000a003700606ce10004003a00005deb0088
:100500008b05e900fdff3e00040037006168e10053
:10051000010032000086eb000b00070019c7ba008b
:100520001905ba000e04e00003003a000a00e000da
:10053000e0ff3a0000000600fe07b2009e018800be
:100540008a047800f5ff3700395dba008b05e900b1
:100550000c003200295dba008b05e900080032006a
:100560000c00e00003003a00e284440032a0b40032
:10057000f5ff370019ddba008b05e900faff3a00f4
:100580008904e800e184440032a0b40000000600c1
:10059000000000000000000000000000000000005b
:1005a000000000000000000000000000000000004b
:1005b000000000000000000000000000000000003b
:1005c000000000000000000000000000000000002b
:1005d000000000000000000000000000000000001b
:1005e000000000000000000000000000000000000b
:1005f00000000000000000000000000000000000fb
:1006000000000000000000000000000000000000ea
:1006100000000000000000000000000000000000da
:1006200000000000000000000000000000000000ca
:1006300000000000000000000000000000000000ba
:1006400000000000000000000000000000000000aa
:10065000000000000000000000000000000000009a
:10066000000000000000000000000000000000008a
:10067000000000000000000000000000000000007a
:10068000000000000000000000000000000000006a
:10069000000000000000000000000000000000005a
:1006a000000000000000000000000000000000004a
:1006b000000000000000000000000000000000003a
:1006c000000000000000000000000000000000002a
:1006d000000000000000000000000000000000001a
:1006e000000000000000000000000000000000000a
:1006f00000000000000000000000000000000000fa
:10070000809fbe00821f78002202ab0012003200e0
:100710008bc8bf0041fc2000ef4f500004003600a2
:100720000d0037008bc8bf00ef4f50000a003e009d
:100730008ec8bf000080fb003211800082707800fc
:100740008e48ec006f4060008ee8b7008b68ec00cc
:100750002202ab00f3ff3a008560a9004f01780048
:100760004f00be0000400600809fbe00829fbe007a
:100770002322ab0015003200170037008a48e20040
:1007800003003a000f00370042fd20000120200046
:100790008fc8bf000080fb00624078000000fb00b3
:1007a000201188008f48ec00674060008fe8b70098
:1007b0008a68ed001311800003806000efff3200b3
:1007c000050037009580a900040037008a48e20040
:1007d000edff3a00fbff37008580a9004f01be0006
:1007e0004f00be00004006003600f800809fbe00ab
:1007f000829fbe00849fbe00869fbe008ec0a9005f
:1008000082c4ab000e00320080c4ab000c0032008a
:100810000004200000248800b33107002208e20011
:10082000070032002228ed002208e20004003a000e
:1008300000f020002408b600010032002428ec005b
:100840008cc4ab000a0032008ac4ab00080032003e
:100850008cc4a900000420005024880070005000bf
:100860002408e30002003a00001020000041880044
:100870008c04ab00060032008a04ab000400320096
:1008800010002000502488008c04a9002028ef00cc
:100890008c64ab00270132008a64ab002501320072
:1008a0008c24ab00080032008a24ab000600320022
:1008b00030418000d00890000130b20000102000cc
:1008c000808f50001b013a002888a90092248000e4
:1008d000800020005024880030418000a058900003
:1008e0008180fb00f324800081806900ef8060003c
:1008f0000f013a00820078000138a30005003200a1
:10090000c20021000128a30006003a006401510042
:1009100004003700420021000128a30001003a0032
:100920006401510001c02300928060000380200018
:10093000838f500046003a00f13f20009280600013
:10094000000990009009900002814000e081490078
:100950000208980013089800304180000001eb0065
:1009600072089800100190004b11de000281ea002d
:10097000610161004b11dd009001900003b0a10006
:10098000030171001200980030418000005990006e
:10099000f04f5100080032008059900002c2b300ad
:1009a00082cf510004003200805990007041410014
:1009b00082cf51000f003a00000a9000900a900088
:1009c000700190008001eb00820f5200838f5a006b
:1009d000d70039006011b800020898001308980089
:1009e00030418000805890008140e8000158980014
:1009f000cf003700d00990000330b2000210200071
:100a0000828f51000a00320040019000828f500016
:100a100007003900000a9000900a900050019000f1
:100a2000e0019000820f5200838f5a00c00039000d
:100a3000900090000180a0001100980030418000db
:100a4000805890008140e80001589800b8003700b5
:100a500003c02000838f50000300320003c0220037
:100a6000838f50002c003a00f13f200092806000fc
:100a7000000990009009900002814000e081490047
:100a80000208980013089800304180000001eb0034
:100a900072089800100190004b11de000281ea00fc
:100aa000610161004b11dd009001900003b0a100d5
:100ab000030171001200980030418000d0099000bd
:100ac0000330b20002102000828f51000a00320071
:100ad00040019000828f500007003900000a90000a
:100ae000900a900050019000e0019000820f5200a7
:100af000838f5a008e003900900090000180a00082
:100b00001100980030418000805890008140e8003a
:100b1000015898008600370002802200828f500022
:100b20005a003a009000900001c0a0001100980007
:100b300030418000f00890008100e80071089800c2
:100b4000d0089000c808de00e3806000e28f50000b
:100b500005003200e38f500027003200e18f500083
:100b600013003a00410037009000900001d8a30024
:100b70006f0032007009900080109000810f5100ca
:100b80006b003600900090000160a00011009800fa
:100b900071c1b3003041800041589800304180005d
:100ba00080589000f140b300015898006000370071
:100bb0009000900001d8a3005d0032007009900001
:100bc00080109000810f5100590036009000900075
:100bd0000160a0001100980071c1b3003041800095
:100be000415898003041800080589000f140b30097
:100bf000015898004e003700a05890000104e00012
:100c0000120035009000900001d8a3004800320087
:100c10007009900080109000810f51004400360050
:100c2000900090000160a0001100980071c1b30015
:100c30003041800041589800304180008058900039
:100c4000f140b3000158980039003700900090003f
:100c50000180a00011009800304180008058900071
:100c60008140e80001589800310037009000900062
:100c70000180a00011009800304180008058900051
:100c80008140e800015898002900370002802300c5
:100c9000828f50000b003a00900090000150a0009d
:100ca0001100980011c1b3003041800041589800f4
:100cb0003041800080589000f140b3000158980006
:100cc0001b003700900090008140e800ff8060002a
:100cd0009001900002fe2f0002816100828070006e
:100ce000110098003041800090009000ff8060006b
:100cf000f38f50000e003400900090000160a000bf
:100d00001100980031c1b300304180004158980073
:100d10003041800080589000f140b30001589800a5
:100d2000f00f20007024880020002000502488004c
:100d3000001007008c44ab002a0032008a44ab004c
:100d4000280032004000200050248800f4858000f4
:100d50000400e0001d0032000230200003102000db
:100d6000240090000000e0001500320020009000f8
:100d70000000e00012003200d00890008280600085
:100d8000828f500002003200838f500006003a002c
:100d9000b00090000100e00003003200b0009000bd
:100da0008100e900310098009000900001c0a1008e
:100db00011009800100078000000e000eeff3a00fb
:100dc000140278000400e000e5ff3a002808a900ba
:100dd0002828a9002848a9002868a9002a68ef0047
:100de000d40f07008c24ab00440032008a24ab00ef
:100df000420032002888a90030418000500990004c
:100e00000230b20001102000810f51003700320083
:100e1000900090008140e800ff8060009001900009
:100e200002fe2f0002816100828070001100980094
:100e30003041800090009000ff806000f38f5000f0
:100e40002a0034008ee4ab000200320001c2b3007d
:100e5000415898008ea4ab000300320011c2b300c9
:100e600030418000415898008e84ab00030032006e
:100e700021c2b30030418000415898008e64ab001d
:100e80000300320031c2b300304180004158980065
:100e90008e44ab000300320041c2b30030418000f9
:100ea000415898008e24ab000300320051c2b300b9
:100eb00030418000415898008e04ab00030032009e
:100ec00061c2b30030418000415898003041800039
:100ed000900090000160a000110098003041800057
:100ee00080589000f140b30001589800f00f2000a6
:100ef0007024880020002000502488004f03be008a
:100f00004f02be004f01be004f00be003600f90088
:100f1000004006000040da000000fe00889fbe008e
:100f200080047800508b80000000e00004003a004c
:100f30000e0007000084eb000000e0000800350010
:100f4000588b80000900e0000500320009004400d1
:100f5000060007000000e00001003d000084eb00f7
:100f6000080078004f04be000000060080007800f2
:100f70000100e00003003a00c0162100508b8800f9
:100f8000000005000080eb00c2962100828f500017
:100f900002003e00518b88000000eb0000000600bc
:100fa0000000050003f0a200889fbe008a9fbe00db
:100fb0008c1f7800fb000700020133006450e10041
:100fc0004f0032006420e1005200320003826c00c6
:100fd00007003b000905d0000306d000820f540033
:100fe0000c065d0002003900020032008901780021
:100ff000030678008582550004003d000003fd00d3
:101000008103fd008502ea008b854200840f720097
:1010100002003b0060001000e08018006011b80082
:101020000005eb007a28e1000a003900060078008c
:10103000c75ddd00f707b200878075002d0037001f
:10104000828171000a017800610560008180d10011
:101050000080d3008502e900f9ff3b000604400050
:101060008784480002003b0060041400e0841c00f8
:101070000988a300070032008a8171008281710013
:10108000610164008904d1000884d3008b05e80065
:10109000170037000978a30013003a000b00e000a6
:1010a000130034008b05e9000804440089844c00d7
:1010b0000a4474000978a3000d003a000b00e00018
:1010c000070034008b05e9000804440089844c00c3
:1010d00001003a000b0020000978a300f7ff32005e
:1010e0000001eb0002003700828171000a017800e4
:1010f000710007000cf0a70001f0a000ba00370053
:101100006420e10002003a00838f6c00ba003300d3
:101110000801be000200be00b3003700889fbe0079
:101120008a9fbe008c1f78009e000700a500330038
:1011300003866c006450e1002e0032006420e10060
:10114000330032006150e1002f0032006120e100e5
:101150003100320085855500eb07b0000900200002
:1011600008042000050037000804440089844c006e
:101170000a0031000603430087834b00000153003f
:1011800081815b00f8ff33000203be000800a0006d
:101190000804440089844c00f6ff3900c639dd009c
:1011a0008301730001003200130020008904d10084
:1011b0000884d3000998a300050032000800a700a6
:1011c0000300a0008904d1000884d3008b05e80047
:1011d0008904d1000884d3000001eb000281d20011
:1011e0003500070001f0a1000cf0a70001f0a000fd
:1011f0007d0037006420e1007f0032000801be005e
:101200000200be00f7ff37006120e1007a003200e3
:101210006000b800f3ff37000000200001f827004d
:10122000f0ff370014002000bd0037000001be00b1
:10123000470007000470a70003f0a1006509b10092
:10124000160032000d0035006828e1000600350068
:10125000f0ff2f00f1ff27000300e00013003b0028
:1012600001002800000005000000400081804800c7
:101270008502e900fcff3a0008003700f88f4200c1
:1012800002003c008000eb00000005008100d1005e
:101290000080d3008502e800fcff3a000300e00074
:1012a00002003b0060001000e08018000000060013
:1012b0006011b800b5003700810020006180550042
:1012c0000b003d000b00200061fe2f000100e1003b
:1012d0001d00340082817100610164008904d10025
:1012e0000884d3000000e800faff3a0071002000f3
:1012f0006100640003007000020060000900320019
:1013000061044400e0844c000988a5000500320017
:101310008b05e8006808e10002003a008904d1006a
:101320000884d300f20f20000258e10005003d00c0
:10133000c75ddd00f907b2008980750008007800fc
:10134000000006000bf827008b0078000000050065
:10135000c70ade00f107b200f50fb2000800320044
:10136000e1cf4200020032000170a000240005001d
:10137000810f7000010032000408050044000500e0
:10138000810f700002003a00140005008502e90098
:101390000000400081c04800fcff3b000170a0003d
:1013a000240005000004be00e9ff07000003be00a2
:1013b0000405be000200be00e5ff0700844f750073
:1013c000000006000200be006450e1000500360087
:1013d0006420e100020036000968a30001003a0021
:1013e0000800be000160a0004f0678004f05be0057
:1013f0004f04be0000000600f0ff2f00f1ff2700a1
:10140000f9ff3700889fbe008a9fbe008c1f7800be
:10141000e4ff0700ebff330003866c006450e1003b
:10142000240032006420e100270032006150e10016
:10143000220032006120e100210032008b85420051
:10144000eb07b1000134b800003ab80008044200cc
:1014500089844a00013ab8000030b8008880400012
:1014600009014a0004003300000040008180480068
:10147000020149008b05e900c909dd008301700004
:101480000100320013002000c814de004814dd0003
:101490004709de001200b200c808de0008847000b0
:1014a00085ff070001f0a1000cf0a70001f0a000eb
:1014b000cdff37006120e100cfff32000801be0000
:1014c0000200be00f7ff37006150e100fcff3a0068
:1014d000c9ff37006022b800060220000000d000db
:1014e0008180d2000482d2008582d2000000a00058
:1014f0000202520083825a000300310002024200bd
:1015000083824a000000a1000603e900f3ff3a00cd
:1015100000000600efff07000400be000000060008
:10152000889fbe008a9fbe00841f78009dff070031
:101530004f00780011003300f0ff2f00838f6c0004
:1015400006003b00040565000a00a70008003700fc
:1015500009f0a6001000200008003700820f540098
:10156000838f5c00030039001000200001003e0062
:101570000000200009f0a7000000ea004f05be00af
:101580004f04be000000e00000000600889fbe007f
:101590008a9fbe0000827000040271000482710004
:1015a000260032000004be000200be006011b80038
:1015b0006b092000950220000182cf000a0039004b
:1015c0000541b1000082cf00070039000541b1009c
:1015d0000982cf00040039000541b1000882cf0024
:1015e000010039000541b1000542520012003200ed
:1015f0000a003b0082817100610164008100d1001a
:101600000080d3008984d3000884d3008b05e800d0
:101610000442e800f7ff3a000700370008044400de
:1016200089844c0000004800818048008b05e90057
:101630000442e900f9ff3a001fff07004f05be0012
:101640004f04be0000000600889fbe008a9fbe00b7
:101650008c9fbe0021152100928a80000200e000cc
:101660000b003a0064814000928a8800e28a880078
:10167000a1009800d18a8800214190000204a000b6
:10168000a2409800614190000204a000e24098004e
:10169000670440004244de004244dd00d48a8000fa
:1016a000c1162100c9962100818454002d0020001c
:1016b000110009008d04d800800678000886e80033
:1016c0000c0646008001eb000200370013002000ea
:1016d0000b027800a44090000108a3000200320031
:1016e0000a003700120a780014017800a240900026
:1016f0000108a300fbff320088004200810f510067
:10170000020039000800e00042003d009405780026
:101710000b00a100848f5500edff3e00e18f5100ca
:10172000eaff3a008d0f540002003600890f540082
:10173000140039006141b8006148b900b4ff2f00be
:10174000050020000000520081805a00800f5100e7
:10175000818f590002003500640544000a003700fb
:10176000c0162100fa962100000555000805450025
:10177000110009000985d8000980b900000578002a
:10178000010037000c0578000a007800e3fd07002f
:10179000e10f400005003a00640544000a007800ab
:1017a000defd0700e10f40002b003200e18a8000df
:1017b00080087800e18a8000e481400021419000a7
:1017c000830f5000020032000204a0000100370025
:1017d0000204a100a2409800640555000a054000db
:1017e0000a087800ea8a880021152100010d780096
:1017f000e28a8000a24090000104a00021419800ec
:10180000a04090000104a100214098008001eb005d
:10181000afff3700d18a8800810f510007003600e2
:101820001101be00f28a8800038b880094087800ba
:101830000041eb00d18a8000a2409800d38a80004a
:10184000030a7800a44090000104a00021429800ff
:1018500064004200010037000000eb004f06be00ac
:101860004f05be004f04be00000006000000e0006f
:101870000800320064005000d18a8000810f5000bf
:1018800001003100d08a8800a04090000104a1002e
:101890002140980000000600e68747008e1f780070
:1018a000d0bf9f00e1bf9f000e0037005fba9700d6
:1018b00014407800efb99700934078000201e900e6
:1018c000814f5000040032000080fb008180fb004b
:1018d000010050000600370066875700041fe8002b
:1018e000030fe8000200e000f0ff3a000000eb0008
:1018f0004f0778006f00b1000000060080017800fb
:1019000002003700b15978000201e9000200e0004e
:10191000fcff3a000000060080017800020037005a
:10192000815978000201e9000200e000fcff3a0062
:1019300000000600800078003104e000feff3a005d
:101940000080ea0000804000000006000a00370026
:10195000b04178000304e000030032000201e90016
:10196000b1cf5100040032008381fb001480fb00e2
:101970000080510000000600010278000200e00033
:10198000f3ff3a00000005008001780006003700f0
:101990000201e900b142780085597800030278001d
:1019a0000504e00006003200030278000200e000b7
:1019b000f7ff3a0002003700005aeb000201e9008d
:0c19c0000200e000fcff3a0000000600fe
:020000040000fa
:1019cc00333100003100000001040000e68c0000ff
:1019dc000000000002040000ee8c00004232000007
:1019ec00313100003231000000000000050400001d
:1019fc00f48c0000483100000000000006040000d8
:101a0c00008d00004200000008040000088d00005a
:101a1c004231000000000000090400000e8d00009f
:101a2c000a0400000e8d000042500000000000006f
:101a3c000b0400001a8d00000c040000088d00003f
:101a4c0042310000500000000d040000268d000003
:101a5c000e040000088d0000480000001104000076
:101a6c00328d000013040000008d000015040000ee
:101a7c00328d0000423100003132000000000000c5
:101a8c0019040000408d00001a040000088d0000ad
:101a9c00483200003232000032000000030800001f
:101aac004e8d000048310000313400003434000009
:101abc003400000007080000588d000009080000e1
:101acc00328d00000b0800000e8d00000c08000089
:101adc00328d000048320000000000000d080000ac
:101aec00708d00003434000000000000010c000078
:101afc00788d0000030c0000ee8c00000d0c000033
:101b0c000e8d00003142000050000000110c00004e
:101b1c00888d0000120c00000e8d00004e0000009d
:101b2c00130c0000948d000032000000180c000013
:101b3c009a8d0000310000001a0c0000a08d0000ee
:101b4c00200c0000a08d000033000000240c0000cd
:101b5c00aa8d0000290c0000ee8c00002a0c00005d
:101b6c00a08d000032310000323200000000000075
:101b7c00330c0000b88d0000360c0000328d0000d4
:101b8c00370c0000708d0000450c0000a08d00008b
:101b9c003145000000000000520c0000ce8d00000a
:101bac00560c0000a08d00006c0c0000ee8c0000a8
:101bbc0031310000000000006d0c0000de8d0000d3
:101bcc0003100000ee8c000005100000ee8c0000ed
:101bdc0009100000ee8c000001f40000ee8c0000f7
:101bec0002f40000a08d000003f40000a08d0000a2
:101bfc0004f40000ee8c000005f40000ee8c0000f4
:101c0c0006f40000a08d000007f40000a08d000079
:101c1c0008f40000a08d000042320000000000001b
:101c2c0020f40000128e000042320000320000004e
:101c3c0026f400001a8e0000323100000000000073
:101c4c0021f40000228e000032320000000000005f
:101c5c0022f400002a8e000023f400009a8d00006c
:101c6c0024f400009a8d000025f40000228e000060
:101c7c005300000030f400003e8e000034000000e1
:101c8c0031f40000448e000040f400000e8d000082
:101c9c0042310000323100000000000047f4000027
:101cac004e8e000049f40000228e000041f400002a
:101cbc00228e0000313200000000000042f40000cf
:101ccc00608e0000313200003100000048f400004a
:101cdc00688e000043f400009a8d000044f400006c
:101cec009a8d000045f40000228e000046f400009e
:101cfc00948d000025300000327800003a25000059
:101d0c0030320000783a00002530000032780000b4
:101d1c003a25000030320000783a000025300000ef
:101d2c00327800003a2500003032000078000000c4
:101d3c0000910000e372000007960000e4750000bb
:101d4c000e9f0000ed7c000009980000ea7b00006b
:101d5c001c8d0000ff6e00001b8a0000f86900005b
:101d6c0012830000f160000015840000f66700008b
:101d7c0038a90000db4a00003fae0000dc4d00003b
:101d8c0036a70000d544000031a00000d24300006b
:101d9c0024b50000c756000023b20000c05100005b
:101dac002abb0000c95800002dbc0000ce5f00000b
:101dbc0070e100009302000077e60000940500003b
:101dcc007eef00009d0c000079e800009a0b0000eb
:101ddc006cfd00008f1e00006bfa000088190000db
:101dec0062f300008110000065f40000861700000b
:101dfc0048d90000ab3a00004fde0000ac3d0000bb
:101e0c0046d70000a534000041d00000a2330000ea
:101e1c0054c50000b726000053c20000b0210000da
:101e2c005acb0000b92800005dcc0000be2f00008a
:101e3c00e071000003920000e776000004950000ba
:101e4c00ee7f00000d9c0000e97800000a9b00006a
:101e5c00fc6d00001f8e0000fb6a0000188900005a
:101e6c00f263000011800000f5640000168700008a
:101e7c00d84900003baa0000df4e00003cad00003a
:101e8c00d647000035a40000d140000032a300006a
:101e9c00c455000027b60000c352000020b100005a
:101eac00ca5b000029b80000cd5c00002ebf00000a
:101ebc009001000073e200009706000074e500003a
:101ecc009e0f00007dec0000990800007aeb0000ea
:101edc008c1d00006ffe00008b1a000068f90000da
:101eec008213000061f000008514000066f700000a
:101efc00a83900004bda0000af3e00004cdd0000ba
:101f0c00a637000045d40000a130000042d30000e9
:101f1c00b425000057c60000b322000050c10000d9
:101f2c00ba2b000059c80000bd2c00005ecf000089
:101f3c0020200000202000000074000079700000b8
:101f4c0065200000253500007320000028250000c6
:101f5c00752900002c200000656c0000656d0000e8
:101f6c00656e0000742000006c6500006e2000009f
:101f7c002532000075200000000a0000002c000033
:101f8c0020760000616c0000756500003a200000ae
:101f9c00006c0000656e000020250000752000001c
:101fac00283000007825000030320000782900002d
:101fbc000a0000002c200000766100006c75000007
:101fcc00653a000020300000782500003038000011
:101fdc006c7800000a0000004e4900004c00000024
:101fec00554900004e540000004900004e540000ba
:101ffc0000550000554900004400000053540000f7
:10200c00524900004e470000004200004f4f0000b4
:10201c004c00000044450000530000004445000003
:10202c0041000000555200004c000000f28f0000ef
:10203c00f68f0000fb8f0000ff8f00000490000063
:10204c000b900000109000001490000018900000fd
:10205c000000000000000000000000001000000064
:10206c0080000000008000005f9b000034fb00003b
:10207c005342000044420000542d00002530000063
:10208c003278000025300000327800002530000046
:10209c003278000025300000327800002530000036
:1020ac00327800002530000032780000003000004b
:1020bc003030000030000000535000005000000091
:1020cc008000000000000000000000000000000084
:1020dc0000000000000000000000000000000000f4
:1020ec0000020000ff2700001000000032ff00007b
:1020fc002710000000320000ff2700001000000035
:10210c0032ff000027100000003200000000000029
:10211c0000000000000000000000000000000000b3
:10212c0000000000000000000000000000000000a3
:10213c004400000032320000003200003232000055
:10214c003200000032320000440000003232000045
:10215c003244000000320000000000009e9000009d
:10216c00a0900000a3900000a8900000ac9000008c
:10217c00a0900000a09000009e9000009e90000097
:10218c00b1900000a8900000000000003600000094
:10219c0053000000110000001b00000000000000b4
:1021ac0000000000000000006f0100002802000089
:1021bc0079000000b7000000a7020000fd0300003a
:1021cc00e00000005301000025300000386c0000d6
:1021dc00582000000020000025300000325800007c
:1021ec0000200000253000003458000000200000c2
:1021fc0025300000384c0000580000003a780000f0
:10220c003c780000567900009e790000827900002d
:10221c00e27800000e790000c67800003e780000dd
:10222c00c083000038840000308400008c830000e0
:10223c0028840000d0830000ac83000050490000cb
:0c224c0043550000534200000000000059
:020000040000fa
:10225800108680004600de00610060000000060075
:1022680001f02000204180008080600010c3b3008e
:102278001700320001f020002041800080806000bb
:1022880000402000808f500008003a00010f200015
:10229800204180008080600000c3b300f08f5000b0
:1022a8000b003a006a4040000900370002f02000a5
:1022b800204180000001610020c3b30001502000cc
:1022c800810f510002003a00600b21001040780095
:1022d800000006008040780060c0b300520b210067
:1022e80092cf100007003a0001f020002041800042
:1022f8008080600030c0b300020032002428ef0064
:102308000040eb00000006008040780060c0b30089
:10231800520b210092cf100007003a0030c0b300e2
:102328000141200022418000810f510002003a0043
:102338002428ec000040eb000000060080407800f4
:1023480060c0b300520b210092cf100009003a0080
:1023580030c0b3000140200022418000810f5100ad
:1023680004003a009404a90000412000204188009c
:102378000040eb0000000600304180009000900013
:102388000160a10011009800304180009000900089
:102398000150a100110098002e48ed002ee8b7006a
:1023a8000300320000ff2f002428b6000b0037007e
:1023b8002f48ed002fe8b70003003200001120007d
:1023c800204188000500370071c0b300600b210070
:1023d80001487800005020002041880000000600d5
:1023e800ec874700889fbe008a9fbe008c9fbe0076
:1023f8008e1f7800004678008146780002477800f2
:1024080083bf9f00fb408000c9eb20000004eb0065
:10241800090578004340dd00660040006a00780046
:102428000018a300360032004340dd00660040007b
:102438006a0078000058a30002003a00994f16007d
:102448002f003a004340dd00660040006a00780033
:102458000048a30003003a00194090008d4f500037
:1024680027003a004340dd00660040006a0078001b
:102478000038a30003003a00294090008e4f500016
:102488001f003a000b4890000080fb009b4890001a
:10249800c808dd0080807000c1b79f00ab4890007d
:1024a8008180fb003b4890004800dd000080700000
:1024b800d0b79f00ccef9f00ddef9f00eeef9f00ad
:1024c8008400200005002000788157009107200033
:1024d80000c0eb00c72707000000e00008003a0032
:1024e8004344dd0000ec2000000044001040900050
:1024f8008fb897008048780010002000050037004a
:102508000804e800e8844400ea0f5400c1ff3a00d8
:102518000000eb004f0778004f06be004f05be00d5
:102528004f04be00cf00b10000000600ea87470054
:10253800889fbe008a9fbe008c9fbe008e1f7800b9
:10254800f9408000200c21001060a1001070a1004b
:10255800d8eb20008805e8000005eb008806e900b4
:10256800000678000e0420004350dd00660040009d
:102578006d0078000018a3000c003200f8f89700ee
:102588004940900080cf50004c003a0059409000dc
:10259800984f100049003a00694090009b4f100086
:1025a80046003a001c60a00044003700080078008c
:1025b800094990000281fb0099489000c808dd0095
:1025c800810071000801e900928f10001a003a009a
:1025d800294990000281fb00b9489000c808dd0035
:1025e800810071009b8f100013003a00c350dd007a
:1025f800e6804000ed8078000178a3000d003200ed
:102608001c70a00048419000810b2100824878008e
:10261800c350dd00e6804000ed8078000128a3006b
:102628000500320038419000210b210082487800d3
:10263800010037001c60a0008000e9000081eb0069
:10264800910f11001d003a009b0f11001b003a006a
:10265800094990000281fb0099499000c819dd00e2
:1026680082817100d3b79f00294990000281fb0045
:10267800b9499000c819dd0003017100e2b79f0055
:1026880070f99700e2ef9f0010407800f0ef9f008c
:102698009b40780081f79f008400200005002000ff
:1026a800768157009107200000c0eb0051270700f2
:1026b8000000e00001003a001c60a0001c00670058
:1026c80012003200c350dd00c0eb20008101400041
:1026d800720b2100d341900003497800e680400046
:1026e800e0807800100020000128a3000d003200cf
:1026f800c350dd00e4804000c2eb2000200b210025
:1027080062c8780010002000060037000a05e800bb
:1027180068044400e8854500ea0f550092ff3a0036
:102728000000eb004f0778004f06be004f05be00c3
:102738004f04be00af00b1000000060080407800e2
:102748000104e00002003a0000868000180037000b
:10275800f38580000000eb000300e0001400320065
:10276800230090000000e0000d00320020009000df
:102778000000e0000a00320020599000814f51000b
:1027880004003a000a00370020599000814f510098
:1027980007003200100078000000e000faff3a005d
:1027a800930178000300e000edff3a000000eb0021
:1027b80000000600889fbe000204be00520b2100e4
:1027c800924f10000600320060c0b300004c780041
:1027d800800ceb00b91478001000200022003700ac
:1027e80001407800d5ff07000000e0001b00320020
:1027f80090009000c908de00e1c060001001900060
:102808000288a30005003200004ceb00000990008c
:1028180090099000828cbe000e00370010019000d5
:102828000258a3000300320010c1b300004c780026
:1028380008003700100190000268a300030032006e
:1028480040589000004c78000200370090c1b30057
:10285800004c78000180fb000300370040c1b30042
:10286800004c7800100020004f04be000000060055
:10287800520b2100924f10000a003a0001407800e4
:10288800aeff07000000e000060032009000900054
:102898000170a00011009800900090000190a00025
:1028a8001100980000000600889fbe000204be00c8
:1028b80062c0b300530b2100934f10000d003a0083
:1028c800014078009dff070042c1b3000000e0000e
:1028d8000800320061046400cd40dd00100490005f
:1028e80008d0a1000884700018009800091098000a
:1028f8000041eb00024078004f04be0000000600d3
:1029080062c0b300530b2100934f10000c003a0033
:102918000140780089ff070042c1b3000000e000d1
:1029280007003200900090000150a10011009800ab
:10293800900090000160a100110098000041eb0098
:1029480002407800000006000042780000868000ff
:102958008481fb00d0089000c808de00e380600096
:10296800838f500006003a00900090000198a30061
:1029780003003a0030418800100020004f00370063
:102988002b68ef00f28580000000eb000200e000f9
:102998004a003200220090008000eb000000e000b6
:1029a80001003200a00090008002eb000100e0006e
:1029b80034003200510890004800de0063006000d7
:1029c800808f51002c003a00e24f5200190032006b
:1029d800e34f5200080032000404e00026003a00e9
:1029e800110090000098a30023003a0031418800ac
:1029f8001000200031003700110090000098a3005b
:102a080006003200310090000000e0001a003a0091
:102a180021009000b00098001700370031009000a6
:102a28000000e00014003a00314188001000200046
:102a380022003700110090000098a3000e003a0011
:102a48001100900000c8a3000b003a002b68ec00ae
:102a58002ac8bf002b48e30007003600b2822000d6
:102a680012417800a0822000024878003141880095
:102a78001000200011003700910078000100e000ec
:102a880009003a00120178000200e0000a00320052
:102a980022009000850078000000e000c3ff3200ab
:102aa800a0009000c1ff37000200e000bfff3a001d
:102ab8000000eb00010037000000eb0000000600fa
:102ac800889fbe008a9fbe008c1f7800fc8580000e
:102ad8000c00e00028003200eb0b21008004eb0022
:102ae8001c0678001b007800900090000100e000b0
:102af8001d00320011057800f085800090009000dc
:102b0800210090000000e0000d0032001004780061
:102b180054fb0700f0858000100090002900980001
:102b2800f08580001000900028009800f085800053
:102b380090009000210090000000e000f3ff3a00b0
:102b48000100780047fb0700f08580001900980015
:102b5800f08580001a0098001b0078009000900013
:102b68000100e000e3ff3a003efb07008c0d78000f
:102b78000c00e000daff3a0000868000304188004f
:102b88004f0678004f05be004f04be000000060047
:102b9800889fbe008a1f7800e08580000000e00062
:102ba80003003a000e0037000800780002003700e2
:102bb8000005eb00c90b21001004900010007800fc
:102bc80028fb0700e08580000a08780019007800d3
:102bd80024fb0700880c78000800e000f2ff3a00a8
:102be800f04080000000e000020032001dfb0700fa
:102bf8001e28ef00604180000000e0000200320063
:102c080018fb07002c28ef00adff07004f057800e0
:102c18004f04be0000000600008680000000e000af
:102c280009003a002002200085fa07008000780099
:102c3800018688000000eb000100e000130032006c
:102c48008008eb0001003700d1ff070000868000f4
:102c5800304188002428ef0020a8ef000040eb0056
:102c6800410b2100804878008100e8008048780006
:102c78003008a800a0002000208688003086880040
:102c8800800c21000008eb00100020000000060066
:102c9800900290000550a100150098009002900045
:102ca8000560a10015009800900290000570a10031
:102cb80015009800900290000580a100150098006a
:102cc8001003900005fe2f00850263001500980090
:102cd8009002900005c0a1001500980033089800e4
:102ce8006033b80006089800170898008002eb00c7
:102cf80054009800650098008001eb007308980064
:102d0800210898007200980001c2b3000158980089
:102d1800900090000190a1001100980000000600aa
:102d2800900290000550a1001500980090029000b4
:102d38000560a10015009800900290000570a100a0
:102d480015009800900290000580a10015009800d9
:102d58001003900005fe2f008502630015009800ff
:102d68009002900005c0a100150098003308980053
:102d78006033b80006089800170898006123b80067
:102d880056009800670098008001eb0073089800cf
:102d980021089800720098000400e00003003a003f
:102da80001c1b300015898000200370001c3b30005
:102db80001589800900090000190a100110098001f
:102dc80000000600900190000370a1001300980015
:102dd800900190000380a100130098001002900059
:102de80003fe2f00830162001300980090019000f9
:102df80003c0a10013009800310898006022b800b1
:102e080004089800150898008001eb00520098000b
:102e1800630098000001eb0072089800d009900048
:102e28000230200082816100828f510003003a0045
:102e380001c4b300015898000a00370002102000ae
:102e4800828f510005003a0002c6b300025898006c
:102e58000041eb00924098000200370001c8b3001f
:102e680001589800900090000190a100110098006e
:102e780000000600889fbe008a1f780002057800bf
:102e88000404be0062c0b300530b2100934f10002e
:102e980026003a0003f02000204180008081610074
:102ea80012c0b30000402000808f51001f003a007c
:102eb8000140780021fe07008001780042c1b3007c
:102ec8000300e00019003200530890000030b200ff
:102ed80082c1b300150032002358900052c1b300dc
:102ee8000004e00011003d001300900012c1b3007f
:102ef8000058a3000d003a001300900022c1b3004f
:102f08000068a30009003a001300900002c1b30052
:102f18000098a30005003200080178008a007800b4
:102f280003007800a7ff07000041eb00024078008b
:102f38004f0578004f04be00000006009001900085
:102f48000370a10013009800900190000380a10075
:102f5800130098001002900003fe2f008301620006
:102f6800130098009001900003c0a100130098007e
:102f7800310898006022b8000408980015089800e5
:102f88008001eb0052009800630098000001eb00fc
:102f980072089800d00990000230200082816100f8
:102fa800828f510003003a0001c5b3000158980010
:102fb8000a00370002102000828f510005003a00f5
:102fc80002c7b300025898000041eb0092409800f5
:102fd8000200370001c9b300015898009000900022
:102fe8000190a1001100980000000600889fbe0013
:102ff8008a1f7800020578000404be0062c0b3008e
:10300800530b2100934f100026003a0003f02000d4
:10301800204180008081610012c0b3000040200080
:10302800808f51001f003a0001407800c3fd07005f
:103038008001780042c1b3000300e00019003200ab
:10304800530890000030b20082c1b300150032006e
:103058002358900052c1b3000004e000110035006d
:103068001300900012c1b3000058a3000d003a00ed
:103078001300900022c1b3000068a30009003a00c1
:103088001300900002c1b3000098a30005003200ad
:10309800080178008a00780003007800a7ff07007d
:1030a8000041eb00024078004f0578004f04be0055
:1030b800000006000400fa00889fbe008a9fbe0038
:1030c8008c9fbe0080457800810478000205780056
:1030d8008306780020072000808f54000300320008
:1030e800f0ff2700808f54000e003a001a48900025
:1030f800e14f40002e0032000080fb004300dd005d
:103108000080e800c1e62000e1017800616ab800ab
:103118000a017800890078000b407800030001005c
:1031280023003700f88580000800e0001200320014
:10313800cce620006168b80080bf9f0091bf9f0067
:10314800784090000080fb004300dd000080e8002c
:10315800ec0178000fba97009fba97000a0178002f
:10316800890078000b4078000300010018047800fb
:103178000800e000f2ff3a00108680000078a30003
:103188000b003200800b21001080fb004300dd00a3
:103198000080e800c1e62000e1017800616ab8001b
:1031a8000a017800890078000b40780003000100cc
:1031b8004f06be004f05be004f04be000080fa0057
:1031c800000006000200fa008824ef00500b2100de
:1031d800104078000004e0000d0032008040eb0051
:1031e800e1ff9f0024002000050020000f81e90076
:1031f800a10620007f240700500b210013002000a7
:10320800000178001107200010407800a9ff07008e
:103218006000b80080fe07000080fa000000060089
:1032280033c0b300e1cf40000f003a000204e000d1
:103238000d003a0081062000810f500004003a007a
:10324800e0ff07003008a9008041eb0006003700c6
:1032580033c0b300b1062000810f500002003a00cd
:103268003008a8008041eb00034078000000060009
:10327800f0874700889fbe008a9fbe008c9fbe00d3
:103288008e1f7800f9858000200c21001010a10005
:103298001020a000e0408000b04578000000e80061
:1032a80030447800304578000000e800b0407800ed
:1032b80081ef9f002040900090ef9f00e0e79f0083
:1032c8007c8157000069eb002400200005002000e5
:1032d8009106200000c0eb00462407000000e00033
:1032e80005003a0081c2b300600b21000148780054
:1032f80011002000da0037000884fb004855dd0083
:10330800080645000b85fb00e04080008000eb00cc
:103318008a0f5600d20036000a0040008046eb00b3
:103328008005780089bf9f000b007800b0457800c1
:10333800b0407800e9cf50000e003a00220c21007e
:103348001210a00010407800ef0151008049780069
:103358000018a300040032001238a3000200320053
:103368001220a10005003700240c21001430a10010
:1033780002003700e4cf5000060032008b85fb00c6
:103388000b0545000a0078001c08b4008005780089
:10339800aa00370090447800d0407800a1ef9f0041
:1033a800000178005247780052407800d2407800f7
:1033b800f2b79f008201780053417800f3b79f006d
:1033c80005042000240c21009481620004003200ce
:1033d8006b00520010407800c0e79f000a003700d9
:1033e800fc815700fefb07000000e00006003a00e1
:1033f8008b85fb000b0545000a0078001c08b4000b
:10340800800578008d0037008fb897000100e00034
:103418000b00320061409000894f5000bf0032001d
:1034280001047800180478000800e0000400320065
:1034380068409000894f5000faff3a000e003700ac
:10344800800020007ef80700000478000800e000f3
:103458000e003200694498004fe1970072449800ca
:103468000000eb0010049800200498008fb9970022
:10347800030c780088bf9f006000200070f80700e8
:10348800e0b79f000000e000a6003a00ffb29700f6
:103498008505e80011002000640037006fb0970030
:1034a800200498008b85fb000b054500e94080004f
:1034b8008a8544008a0f5600580036000e04e00042
:1034c800a40032008046eb001b44780051c0b300d2
:1034d800dbcf1000040032000884fb00080545001b
:1034e8008a854400470037002002200054f807006e
:1034f8008000780001f0a7008100ea008100e9005f
:10350800cf08de005b417800225898000b01780054
:10351800d241780033589800d281fb0043009800cc
:103528005282fb004822dd008301420043009800dc
:10353800924190008381fb00230098000001eb007a
:10354800120098001002900004a0a0001400980037
:10355800100290000490a000140098006022b800a7
:10356800040898001508980002589800cfe29700c0
:10357800155898005009900004302000040161009b
:1035880005102000850f510011003a000300e000eb
:1035980003003a00120020002200980004003700bf
:1035a800f08f51000200360002012000220098002e
:1035b800200190000201e900130020000219dd003b
:1035c800220098001001900002a0a10012009800ab
:1035d8002001900032009800efb19700a3019000fd
:1035e800030878006fb29700200298008d46e80023
:1035f8000884fb00080545008a8544000100e000b6
:103608000a003a008a0f5600070036008d4f57000f
:10361800adff3e008000eb00040037008046eb0061
:103628008000eb00010037008000eb008ecf5600d1
:1036380007003a000100e00008003a008a0f56002f
:1036480039ff3e008fbc97008000eb000400370074
:103658008fbc970011002000010037008fbc970035
:103668000000eb000900e000260032000100e00045
:103678001c003200010037008a0478001905780020
:10368800190490000800e000100032009802780049
:1036980095049800280090000000e0000600320021
:1036a80090007800210498006ef807002800900028
:1036b8000000e000faff3a000800780069f8070007
:1036c800190490000800e000f0ff3a0009007800b3
:1036d80064f807000a00e000e7ff3a000000eb008a
:1036e80008003700200b21000fe9970002487800f6
:1036f8009fe997000380fb00d0858800f985880042
:10370800100020004f0778004f06be004f05be008e
:103718004f04be000f01b100000006000fbc970067
:1037280055ff3700980290006fb29700050a78009d
:103738002fe89700204298000000eb002002980034
:1037480014049800afe897000104e00053ff32002a
:1037580054ff37008046eb00b8ff37000200fa003c
:10376800889fbe008a9fbe008c9fbe004086800056
:103778000000e00025003200680c2100e404440049
:103788008885e9005c0b2100faff27001800780003
:1037980009017800e80f500004003c000001e8002f
:1037a8006c11b900660141000b01410092007800dc
:1037b80020072000808f5000020032008a8f5000be
:1037c80004003a000281e800a30020001c407800b1
:1037d80038fe0700622480008c24ef00810c210051
:1037e8001100e9008008780098007800e88f500000
:1037f80002003c00010ce80001003700000ceb005f
:10380800622488000000e000e0ff3a0000418000e8
:10381800e10f4000030032002008f8002408f900f6
:1038280020a8ef0000f020002408b60001202000a6
:10383800810f5000a901320006003e000000e000a0
:103848000e00320001102000810f5000f2033a00f0
:103858008c00370001402000810f5000980332008f
:103868000110b000810f5000b50332000130200074
:10387800810f5000e8033a00d1013700000f200003
:103888002408b600f00f5000560032000102200054
:10389800810f50005a0032000000e000de033a00b9
:1038a80048fe07008000eb000086800001087800d1
:1038b800000c210010017800110198001001780017
:1038c8009201900003a0a000130198001001780055
:1038d800920190000390a000130198001001780055
:1038e8009201900003d0a000130198001001780005
:1038f800830c200003119800030420004301980062
:10390800100178006022b800040998001509980091
:10391800100078000041eb002158980002589800e8
:10392800500a9000f3cf2f008301620053089800db
:1039380080c1eb001358980040c6b3002fe8b700c9
:10394800200b2100024878000000e80002487800b7
:103958000000e8000248780011868800f185880098
:103968002828ef008c24ef00f00f20005024880056
:10397800c108200025482000958a6000ef8050008b
:10398800012488009024ef007024880000002100a2
:103998004800de00c024880080002000a0248800a1
:1039a800a1002000a1248800a02488000003200092
:1039b800302488002000200030258800a824ef004b
:1039c8009624ef00aae4a900a0042000002588009e
:1039d80000ff20002408b600700040002041880045
:1039e8008d0337003008ab008b03320000ff200046
:1039f8002408b60070004000204188008603370084
:103a08000040eb00a0f79f0020c3b300b0f79f0071
:103a180024002000050020006e8157009106200038
:103a280000c0eb00732207000000e0001100320024
:103a380010002000402488008ec0a900f00f2f003d
:103a4800ce20b60000602000ce20b7009ec0a8009f
:103a580000ff20002408b6007000400020418800c4
:103a68008cc4a800000420000024880082c4a80098
:103a7800690337003008a9000001200020418800b0
:103a880065033700000f20002408b600010220005b
:103a9800810f50007c00320005003e000000e0006d
:103aa8000a003200f00f50005b033a001c00370098
:103ab80001032000810f5000d0003200f080400048
:103ac800810f500054033a00fe0037002041800067
:103ad8006f00600003003200e20f50004e033a000e
:103ae8000a00370010002000502488008c04a80029
:103af800b00f200010418800000420000024880036
:103b080082c4a8002428ec004303370000ff2000eb
:103b18002408b60070004000204188003e033700aa
:103b2800204180006f006000e20f50004400320026
:103b3800e40f50004b0032000000e00036033a006a
:103b4800604180000000e0000100320045f70700f6
:103b580080002000baf60700604188000000e000fd
:103b680006003a0031c3b300600b21000148780019
:103b78000050200020418800270337000040eb0058
:103b8800210b2100804878008100e80080487800f7
:103b98006f8040000008eb0030c0b3002ee8b7008b
:103ba800d000200050258800ac24ef00ae24ef00a0
:103bb800b024ef00b224ef00b424ef00b624ef00e5
:103bc800b824ef00ba24ef00bc24ef00be24ef00b5
:103bd800c024ef00c224ef00c424ef00c624ef0085
:103be800c824ef0094e4ab0008003a006f8040005e
:103bf8001000a00001c8b3006e0050000148780012
:103c080000082000b0248800aae4a8009424a80092
:103c18009424a900200c21001040a1001050a100fc
:103c28009484a80030032000104188006d004000f3
:103c38000024880082c4a8002428ec00f60237007b
:103c48009484a9009404a800b000200010418800c2
:103c5800000420000024880082c4a8002428ec0066
:103c6800ed023700f000200060248800f00f2000eb
:103c78008024880000ff20002408b600700040005f
:103c880020418800e4023700204180006f00600076
:103c9800e10f50001e00320003003900e20f50000f
:103ca800dd023a002f003700f04080000000e000fd
:103cb80002003200ebf607001e28ef006141800089
:103cc80000c8b3008048780060c0b30090409800f6
:103cd8000040eb00a040980012c0b300b24098002a
:103ce800c0409800d040980082c0b300e2409800dd
:103cf800f0409800840020008101780004017800d9
:103d080000868000e2fb07002428ec00c20237008e
:103d180000868000900090000198a300be02320047
:103d2800100090000088a3000c0032006041800061
:103d380040409000e94f500006003a0051c3b300dc
:103d4800600b2100014878000050200020418800c5
:103d5800b10237002428ec00af02370086f90700cb
:103d6800ad023700684180001880fb0034f6070078
:103d7800f04088000000e00006003a0031c3b300bc
:103d8800600b210001487800005020002041880085
:103d9800a102370018487800f84090008180fb00a5
:103da800008680004100980008007800adf6070002
:103db800008680004000900021f6070060418800de
:103dc8000000e00006003a0031c3b300600b210098
:103dd8000148780000502000204188008e023700fa
:103de80030c0b3002ee8b70000ff20002408b6005a
:103df8007000400020418800870237002041800081
:103e08006f006000e10f50001c0032000300390011
:103e1800e20f500080023a00230037002888ab00e8
:103e28007d023a006141800000c8b30080487800f4
:103e380060c0b300904098000040eb00a04098009c
:103e480012c0b300b2409800c0409800d04098001b
:103e5800f240800012417800e2409800f04098005b
:103e6800f34080001382fb0082002000008680005f
:103e780087fb07002428ec006702370000868000d3
:103e8800900090000198a300630232001000900097
:103e98000088a300020032002428ec005e023700ec
:103ea80035f907005c02370030c0b3002ee8b700d0
:103eb80000ff20002408b600700040002041880060
:103ec8005502370099f9070000f020002408b600d1
:103ed8000010b000204188004f023700000f20007a
:103ee8002408b6004c023a00204180006f006000b0
:103ef800e10f50001a00320003003900e20f5000b1
:103f080045023a0021003700520b210010c0b300cf
:103f180000497800614180000040eb00804878004b
:103f280053c0b3009340980012417800a240980013
:103f3800b0409800c0409800d0409800e0409800f9
:103f4800f04098000002eb00840178008200200015
:103f58000086800072fb07002428ec002e02370040
:103f680000868000900090000198a3002a02320089
:103f7800100090000088a300020032002428ec0002
:103f880025023700fcf8070023023700118680005d
:103f9800e1806000c708dd00520b21000200e90043
:103fa80012c8700030c0b3002ee8b70000f020003f
:103fb8002408b6000010b00020418800160237001f
:103fc800000f20002408b60001022000810f5000d5
:103fd8008400320005003e000000e0000a003200c4
:103fe800f00f50000c023a002200370001032000b5
:103ff800810f5000ba003200f0804000810f50005d
:1040080005023a0037013700f04080001051900057
:104018001183200082487800e08580000000e000dd
:1040280003003a000e00370008007800020037004d
:104038000005eb00c90b2100100490001000780067
:1040480008f60700e08580000a0878001900780063
:1040580004f60700880c78000800e000f2ff3a0038
:1040680000ff20002408b6007000400020418800ae
:10407800e9013700204180006f006000e10f500027
:104088001900320003003900e20f5000e2013a0043
:10409800200037006141800000c8b30080487800e4
:1040a80060c0b300904098000040eb00a04098002a
:1040b80022c0b300b2409800c0409800d040980099
:1040c80082c0b300e2409800f040980084002000cd
:1040d800810178000401780000868000ecfa07006e
:1040e8002428ec00cc013700008680009000900066
:1040f8000198a300c8013200100090000088a300b6
:10410800020032002428ec00c30137009af80700a7
:10411800c10137006000200049f50700000478005d
:104128000800e00006003a0031c3b300600b21002c
:10413800014878000050200020418800b60137006f
:104148006b418000638545008b85e8009a80fb0001
:10415800c808dd001b80fb000080400038f5070020
:10416800000c78000000e00008003a000800780021
:10417800bcf5070031c3b300600b2100014878008b
:104188000050200020418800a30137001a81fb005d
:104198004811dd009b80fb00810041002140980010
:1041a800c808de0031409800c10b210011027800d8
:1041b8001404980088087800e040880015832000df
:1041c800954278004544980030c0b3002ee8b70007
:1041d80000ff20002408b60070004000204188003d
:1041e8008d013700204180006f006000e10f500012
:1041f8002300320003003900e20f500086013a0024
:104208002a0037006141800000c8b3008048780068
:1042180060c0b300904098000040eb00a0409800b8
:1042280022c0b300b2409800c0409800d040980027
:10423800e08580001000780020409000e040980061
:10424800e08580001000780030409000f040980031
:10425800e085800090017800234090000080fb00fa
:10426800334290004822dd000402700082002000e2
:104278000086800086fa07002428ec0066013700d3
:1042880000868000900090000198a300620132002f
:10429800100090000088a300020032002428ec00df
:1042a8005d01370034f807005b01370030c0b30008
:1042b8002ee8b7003148ed0031e8b70003003200be
:1042c80000312000204188005301370000ff200002
:1042d8002408b60070004000204188004e013700d5
:1042e800204180006f006000e10f50004100320063
:1042f80005003900e20f500060003200e30f500063
:1043080045013a0068003700edf90700200b21004d
:10431800904078000104e00010003a00e085800039
:10432800904188000000e00023003200100078006f
:10433800e0408800cefb07000000e0001e003a00c5
:10434800dff907009041800010009000904188003c
:104358000000e000f5ff3a0017003700e085800014
:10436800904188000000e0000c00320040419000bd
:1043780082cf500009003200100090000000e000d9
:1043880002003a0090418800040037004041900044
:1043980082cf5000f8ff3a00904188001000780062
:1043a800e0408800b2fb07000000e00002003a008d
:1043b800c3f907003228ef00108680000028a30008
:1043c8000a0032003208e20006003a0041c3b30096
:1043d800600b21000148780000502000204188002f
:1043e8000d0137002428ec000b0137002428ec00cd
:1043f80009013700108680000028a3001a003a003f
:10440800200c21001020a000614180008048eb00b2
:1044180032c0b300924098001038a3000300320065
:1044280002407800a04098000200370040c0b30066
:10443800a04098000040eb00b0409800c0409800b1
:10444800d0409800e0409800f04098000002eb004f
:1044580084017800820020000086800030fa07007e
:104468002428ec00ec00370000ff20002408b600e8
:104478007000400020418800e70037000086800077
:10448800900090000198a300e30032001000900013
:104498000088a300020032002428ec00de00370068
:1044a800b5f70700dc00370030c0b3002ee8b700ce
:1044b8003208e20006003a0041c3b300600b210055
:1044c800014878000050200020418800d2003700c1
:1044d80000ff20002408b60070004000204188003a
:1044e800cd003700204180006f006000e10f5000d0
:1044f8001a00320005003900e20f50002200320095
:10450800e30f5000c4003a002300370061418000e7
:104518000040eb008048780092c0b30092409800b9
:10452800220b210012417800a2409800b040980068
:10453800c0409800d0409800e0409800f0409800b3
:104548000002eb00840178008200200000868000d1
:10455800f3f907002428ec00af003700008680003c
:10456800900090000198a300ab003200100090006a
:104578000088a300020032002428ec00a6003700bf
:104588007df70700a400370030c0b3002ee8b7005d
:104598002428ec00a000370000f020002408b60012
:1045a8000010b00020418800108680000068a30039
:1045b80014003200700b2100904078000181fb004c
:1045c8004311dd00c3e62000028041006302790048
:1045d80020019000b0019000500b2100104078009d
:1045e800040001000000e0001e003a0091c3b3007f
:1045f800600b21000148780000502000204188000d
:1046080018003700f88580000800e0001500320027
:10461800c9e620005a0b21008a05e8009cc3b300b4
:104628000d502000f84090000181fb004311dd008f
:10463800028044006902790020019000b0019000d6
:104648001a407800040001000000e00002003a006f
:104658008c4d78002d418800180478000800e0008f
:10466800f0ff3a00108680000078a3006a0032004c
:10467800800b2100904078000181fb004311dd0090
:10468800c3e6200002804100630279002001900007
:10469800b0019000500b2100104078000400010088
:1046a8000000e0005c003a0091c3b300600b2100f9
:1046b800014878000050200020418800560037004b
:1046c800000f20002408b600f00f500052003a00f6
:1046d800204180006f006000e30f50000c003200a2
:1046e800e50f500013003200e10f50004a003a0075
:1046f8009444a800500120001041880000042000c4
:104708000024880082c4a8002428ec004200370056
:104718009444a9009404a800b00020001041880027
:10472800000420000024880082c4a8002428ec008b
:10473800390037000040200020418800360037004b
:10474800000f20002408b60033003a008000200043
:10475800a02488008c24ef00f00f2000502488004b
:10476800c10820002248200012896000ef80500014
:10477800012488009024ef00702488008c04a8008d
:10478800000420000024880082c4a800600b2100d7
:1047980010407800f1c0500042c3b300824f50006f
:1047a8001200320008003e00d1c6b300e74f5000a7
:1047b8000e00320081c0e8000241e900824f50003b
:1047c80009003a000900370051c6b30052c3b300cc
:1047d800824f500005003200e9c0400064414100aa
:1047e800824f50000100320001c7b3008180fb00f6
:1047f8001400200005002000a20b210065005100d4
:1048080010407800fb1e070000ff20002408b600b7
:1048180070004000204188004f06be004f05be00d2
:104828004f04be000080fa00000006000004e0000b
:1048380016003a00f38580000300e00019003200fa
:10484800130190000200e0000c00320022009000ea
:104858000000e000060032009000900001b0a100c6
:1048680011009800100078000000e000faff3a00fc
:10487800120178000200e000f4ff3a00930178008a
:104888000300e000eeff3a0006003700abf7070030
:104898000000e000030032009000900001b0a10089
:1048a80011009800000006008f87e800889fbe006e
:1048b8008a9fbe008c9fbe008e1f7800014678003c
:1048c80002457800830478000404780085057800a0
:1048d800060778008746780061c0b300520b2100b4
:1048e800924f100066003a0002f02000204180003c
:1048f8000001610011c0b30000402000800f51008a
:104908005f003a00008680001000900001c1b300eb
:104918000098a3005a003200eb4f55002e003a00d1
:10492800f085800031c0b3000000e0005400320080
:10493800e04090008180fb00888f500057003200d3
:10494800100078000000e00048003200e0409000cd
:104958008180fb00888f5000f9ff3a004f00370034
:10496800220190000200e0000b003200920190004a
:1049780031c0b3000398a30004003a004000370098
:10498800920090000198a3003a00320012017800ca
:104998000200e000faff3a001001900031c0b300b5
:1049a8000200e00036003200a24090008180fb0047
:1049b800898f50003e003200120178000200e000aa
:1049c8002e003200a24090008180fb00898f5000a9
:1049d800f9ff3a0036003700e14f550006003a006b
:1049e8000900e00004003a00e24f560002003e00d1
:1049f800084078008dff0700614180008c487800ee
:104a08009a409800a9409800c84cde00b940980028
:104a1800c84098004844de00d8409800eb40980011
:104a28004858de00f0409800008680002fe9970083
:104a3800125898000d04e00006003a000b027800b6
:104a48008e01780082002000b5f807008040eb0056
:104a58000b0037000b0278008e01780082002000de
:104a68008bf807008040eb000500370031c0b30029
:104a78000300370031c0b3000100370031c0b30074
:104a8800014078004f0778004f06be004f05be0072
:104a98004f04be002f00b100000006002001900066
:104aa80031c0b3000200e000adff3a00f4ff370068
:104ab80022009800d0ff370013868000d2cdb300c3
:104ac8000308a30001003a00d2c5b30033418000b7
:104ad800530a90000430b20001003a000244a100d9
:104ae800530a90000430b20003102000830f5200d4
:104af80001003a000204a1000281fb00522588004f
:104b0800420b21001281fb00b22488008180fb0047
:104b1800c408dd00f007b20001007000f02488002e
:104b28002888a80000000600889fbe00e94f5000b2
:104b38000f003a0010868000410021000048a300c1
:104b480001003a00e4805000200c21001001780098
:104b58004411de000281ea00610161004411dd00b8
:104b6800900178000340a1000288710023003700fb
:104b780012868000c10021000258a30001003a00fb
:104b8800e4805000220c210092017800c519de0053
:104b98008381ea00e1816100c519dd001202780015
:104ba8000450a10003097200ed4f500013003a00b1
:104bb8003241800072039000020c9000920c900029
:104bc800420290008003eb000803530089835b00d6
:104bd8008002eb00840f5300858f5b0002003600d3
:104be800c201900020003700f2019000020a9000f4
:104bf800920a9000848151001b00370030418000e8
:104c0800d00990000330b20002102000828f5100ba
:104c180002003a00c00190003e00370050039000a7
:104c2800e0039000000a9000900a90004001900074
:104c38000402530085825b008001eb00820f520062
:104c4800838f5a0002003600c001900031003700ff
:104c580050029000e0029000000990009009900036
:104c6800820152002b003700220990009200980020
:104c78000e00370030099000300890001042900074
:104c88000482fb000402e8006622b90062017a008f
:104c9800920098000500370030099000000a900043
:104ca800900a900004004100900098000041eb0039
:104cb8009240980003007800f03fb20002c02f0035
:104cc8001101610002007000800878003241800004
:104cd80092019000cb19de00e1816100ce19dd0060
:104ce80000e0a100008071008008780012019000a7
:104cf8004a11de00610161004b11dd0000b0a10026
:104d08000000710000f0a000800878004f04be0089
:104d180000000600500a90000430b2000210200083
:104d2800820f5200dcff3a00d2ff3700889fbe0096
:104d38008a9fbe008c9fbe00204180002888ab005f
:104d4800dc033a000004eb002808ab00d8013a0065
:104d58000040eb00fcf607000000e000d301320041
:104d68003041800080589000010fb20002022000fc
:104d7800828f50009400320070014100828f5000f1
:104d88002a013200f08f5000c1013a00805890008b
:104d9800ef806000e18f50001400320003003c00f7
:104da8000100e00006003200b9013700e28f500030
:104db8001e003200ef8f5000b5013a004f00370057
:104dc8009000900001b0a10011009800d0c0b3007d
:104dd80055ff07003041800020589000d1c0b30033
:104de80035ff07002808a800b20337000009900023
:104df80090099000520098006300980030418000ac
:104e08009000900001b0a0001100980090c0b3007d
:104e180045ff0700304180002058900091c0b30042
:104e280025ff07002808a800a20337008040eb00f0
:104e38000158980030418000900090000190a00037
:104e48001100980040868000e90f500027003c00c0
:104e5800810c21008008e80020868000e80f5000bf
:104e680003003c00e48050008008e800020037009e
:104e7800400c21000008eb00420c21009201780050
:104e88006c18b9008000780001024100200720005a
:104e98003002980030418000000b9000900b900089
:104ea80046029800570298000302e8006c22b900f5
:104eb800b00b900007317a006e01410001014100fa
:104ec8008041eb0013419800a059900003497800f5
:104ed800420d210081004100305a9000844878003a
:104ee80010589000904098007003370081c0b300bc
:104ef80030418000315898006c0337008040eb0047
:104f08000158980030418000900090000190a00066
:104f18001100980040868000e90f500026003c00f0
:104f2800810c21008008e80020868000e80f5000ee
:104f380003003c00e48050008008e80002003700cd
:104f4800400c21000008eb00400c21001001780003
:104f58006c12b9008400780081014000f4ff27003a
:104f6800b40198006033b800c6019800d7019800d2
:104f78000201e8006c11b900020040000008eb00d3
:104f880030418000220d210001014100c05b9000ea
:104f980017419800a059900003497800420d21005c
:104fa80081004100305a90008448780010589000e1
:104fb800904098003d03370081c0b3003041800025
:104fc800315898003903370080589000ef8060000e
:104fd800e28f50001e00320005003c000100e00096
:104fe80008003200e18f500029013a001000370014
:104ff800e38f500026003200ef8f500024013a0062
:10500800570037009000900001b0a10011009800ef
:10501800d0c0b300c4fe0700304180002058900083
:10502800d1c0b300a4fe07002808a8002103370058
:1050380090c0b300bcfe07003041800020589000ab
:1050480091c0b3009cfe07002808a8001903370088
:10505800000b9000900b9000560098006700980095
:10506800304180009000900001b0a000110098002d
:1050780010c0b300acfe07003041800020589000fb
:1050880011c0b3008cfe07002808a80009033700e8
:105098008040eb000158980030418000900090005b
:1050a8000190a0001100980040868000e90f500090
:1050b80027003c00810c21008008e8002086800041
:1050c800e80f500003003c00e48050008008e8002e
:1050d80002003700400c21000008eb00420c2100c0
:1050e800920178006c18b900800078000102410034
:1050f800200720003002980030418000000b90000b
:10510800900b900046029800570298000302e800ae
:105118006c22b900b00b900007317a006e01410093
:10512800010141008041eb0013419800a059900013
:1051380003497800420d210081004100305a900057
:10514800844878001058900090409800d7023700a3
:1051580081c0b3003041800031589800d302370035
:105168008040eb000158980030418000900090008a
:105178000190a0001100980040868000e90f5000bf
:1051880026003c00810c21008008e8002086800071
:10519800e80f500003003c00e48050008008e8005d
:1051a80002003700400c21000008eb00400c2100f1
:1051b800100178006c12b900840078008101400069
:1051c800f4ff2700b40198006033b800c6019800c6
:1051d800d70198000201e8006c11b90002004000f4
:1051e8000008eb0030418000220d21000101410040
:1051f800c05b900017419800a059900003497800bf
:10520800420d210081004100305a90008448780006
:105218001058900090409800a402370081c0b30055
:105228003041800031589800a00237008058900023
:10523800ef806000e28f50001e00320005003c0045
:105248000100e00008003200e18f500090003a00b1
:1052580010003700e38f500026003200ef8f500017
:105268008b003a00570037009000900001b0a10071
:1052780011009800d0c0b3002bfe07003041800019
:1052880020589000d1c0b3000bfe07002808a800e2
:105298008802370010c0b30023fe070030418000a9
:1052a8002058900011c0b30003fe07002808a8008a
:1052b80080023700000b9000900b90005600980079
:1052c80067009800304180009000900001b0a00075
:1052d8001100980090c0b30013fe07003041800011
:1052e8002058900091c0b300f3fd07002808a800db
:1052f800700237008040eb00015898003041800070
:10530800900090000190a000110098004086800055
:10531800e90f500027003c00810c21008008e800bc
:1053280020868000e80f500003003c00e480500015
:105338008008e80002003700400c21000008eb005c
:10534800420c2100920178006c18b90080007800a6
:1053580001024100200720003002980030418000ff
:10536800000b9000900b900046029800570298009e
:105378000302e8006c22b900b00b900007317a00f4
:105388006e014100010141008041eb00134198008a
:10539800a059900003497800420d21008100410086
:1053a800305a900084487800105890009040980037
:1053b8003e02370081c0b300304180003158980068
:1053c8003a0237008040eb000158980030418000d5
:1053d800900090000190a000110098004086800085
:1053e800e90f500026003c00810c21008008e800ed
:1053f80020868000e80f500003003c00e480500045
:105408008008e80002003700400c21000008eb008b
:10541800400c2100100178006c12b900840078005b
:1054280081014000f4ff2700b40198006033b80000
:10543800c6019800d70198000201e8006c11b90074
:10544800020040000008eb0030418000220d2100de
:1054580001014100c05b900017419800a0599000dd
:1054680003497800420d210081004100305a900024
:105478008448780010589000904098000b0237003c
:1054880081c0b300304180003158980007023700ce
:105498008040eb0001589800304180009000900057
:1054a8000190a00011009800180020002808a8000a
:1054b8002828ab00f6003200ff003700304180009a
:1054c80080589000010fb20002042000828f500023
:1054d8000400320070014100828f5000db003a0066
:1054e8006d00370080589000ef806000e18f500019
:1054f8000b003200ef8f5000390032000100e0004d
